:100000000C942A000C9447000C9447000C94470071
:100010000C94D8080C94AF080C9486080C943408FF
:100020000C945D080C940B080C94E2070C94B9072F
:100030000C9447000C9447000C9447000C94470024
:100040000C9447000C9447000C9447000C94470014
:100050000C94470011241FBECFE5D8E0DEBFCDBF12
:1000600011E0A0E6B0E0EAE1F4E102C005900D92F3
:10007000A03CB107D9F722E0A0ECB1E001C01D928D
:10008000AB30B207E1F70E94BF050C940B0A0C9449
:100090000000FF920F931F93CF93DF938FEC91E0BB
:1000A0000E942F0980E0E82FF0E0E153FE4F90819D
:1000B000992311F08F5FF7CF8093C40160E080E057
:1000C0000E94860482E690E00E949D042FEF84E364
:1000D0009CE0215080409040E1F700C0000060E0CB
:1000E00080E00E94860484E790E00E949D0460E026
:1000F00081E00E94860486E890E00E949D04C7E5A6
:10010000D2E004E610E082E0F82E0E944C038093D7
:100110006000843559F0813319F4F092DB0104C09A
:100120008233C1F41092DB0181E015C06BE081E005
:100130000E948604CE01B8010E949C09072E000C83
:10014000880B990B0E94B0048FE097E20197F1F7BA
:1001500000C0000080E02197C236D10511F088234D
:10016000A1F2DF91CF911F910F91FF900895DC01D3
:1001700090E0292F30E0FD01E20FF31F408144237E
:1001800041F0FB01E20FF31F8081481304C09F5F21
:10019000F0CF80E0089581E00895CF93DF930E942F
:1001A0004C0380936000C091DB01C13009F4D5C0DD
:1001B00020F0C23009F431C10EC28091C301811117
:1001C0001DC00E94910460E080E00E94860487E9DF
:1001D00090E00E949D046BE080E00E9486048CE920
:1001E00090E00E949D046BE081E00E94860482EA18
:1001F00090E00E949D0481E08093C3010E94370338
:10020000EC018091DA01823039F060E081E00E94F7
:100210008604CE010E943B0580916100C33C21E031
:10022000D20728F48130B1F51092DA013EC0C43F04
:10023000D14080F1813071F50E94A605EC016BE0A0
:1002400081E00E948604CE010E943B05C53FD1405B
:1002500038F480916100813019F48093DA0125C06F
:1002600082E08093DA011092610060E080E00E94F9
:10027000860487EA90E00E949D0460E081E00E948D
:1002800086048BEB90E00E949D0460E081E00E9478
:1002900086040BC0811109C080916000813329F46C
:1002A00081E08093DB011092C2018091DA018130FC
:1002B000B9F1C0F0823009F08EC161E085E10E94A1
:1002C0000C0760E081E10E940C0761E080E10E9480
:1002D0000C0760E082E10E940C0780E0DF91CF9183
:1002E0000C94850566E081E00E94860480ED90E034
:1002F0000E949D046BE081E00E94860482EA90E007
:100300000E949D0460E085E10E940C0761E081E1AC
:100310000E940C0760E080E10E940C0760E015C0BD
:1003200066E081E00E94860485ED90E00E949D04D5
:1003300060E085E10E940C0760E081E10E940C070B
:1003400060E080E10E940C0761E082E10E940C07FE
:1003500080E0DF91CF910C9473058091C2018111EF
:1003600018C00E94910460E080E00E9486048AED3B
:1003700090E00E949D0460E081E00E9486048AEE85
:1003800090E00E949D0460E081E00E948604C0939A
:10039000C20180916000843509F41DC1E091C10162
:1003A0009091C401E917B8F4833481F41092C1012B
:1003B00060E081E00E9486048AEE90E00E949D0445
:1003C00060E081E0DF91CF910C94860420ED280F4E
:1003D0002A3018F499C0833449F38D3309F0FBC0F7
:1003E000E913F9C0F0E0EB53FE4F108265EC71E0C9
:1003F0008FEC91E00E94B700811108C01092C101FA
:100400001092DA0181E080936100BEC060E081E07B
:100410000E9486048BEF90E06AC08091C001811138
:1004200019C00E94910460E080E00E94860484E18B
:1004300091E00E949D0460E081E00E9486048AEEC3
:1004400090E00E949D0460E081E00E94860481E0CB
:100450008093C00180916000843509F4BCC0209174
:10046000D901E091C1019091C401211144C0E91763
:1004700040F4833409F49ACF20ED280F2A3020F479
:1004800043C0833409F492CF8D3309F0A4C0E9133B
:10049000A2C0F0E0EB53FE4F108265EC71E08FECF0
:1004A00091E00E94B70081111CC00E94910460E09D
:1004B00080E00E94860487E291E00E949D0460E053
:1004C00081E00E9486048AEE90E00E949D0460E034
:1004D00081E00E9486041092C10181E08093D901DD
:1004E0007AC060E081E00E94860485E391E0DF91BC
:1004F000CF910C949D04E91798F4833409F456CFF6
:1005000090ED980F9A3078F4F0E0EB53FE4F808333
:100510000E949B048091C1018F5F8093C1015BC0E9
:10052000833409F443CF8D3309F055C085EC91E055
:100530000E940109882369F10E94910460E080E033
:100540000E94860487E491E00E949D0460E081E0BF
:100550000E94860488E591E00E949D048FEF99E651
:1005600028E1815090402040E1F700C000009091C8
:10057000C401A5ECB1E0EFECF1E080E0891721F0D7
:100580002D9121938F5FFACF1092DB011092C3015E
:1005900022C01092D90182E08093DB011092C00149
:1005A0000E94910460E080E00E94860482E691E06F
:1005B0000E949D0461E080E00E9486048EE691E046
:1005C0000E949D048FEF99E628E1815090402040E1
:1005D000E1F700C00000DF91CF9108950E949705D8
:1005E0009093DE018093DD01E1EEF1E08193919340
:1005F00021E0E53FF207D1F70895CF93DF93C09153
:10060000DC01D0E00E949705CC0FDD1FCF51DE4FFB
:10061000998388838091DC01E82FF0E0EE0FFF1FC3
:10062000EF51FE4F208131813093DE012093DD01B7
:100630008F5F8A3019F08093DC0102C01092DC01D8
:10064000E1EEF1E080E090E021913191820F931F83
:1006500021E0E53FF207C1F76AE070E00E948809F7
:100660007093E0016093DF01DF91CF910895809155
:10067000DF019091E001089562E08CE00E9408069D
:1006800062E08DE00E94080662E08EE00E940806AB
:1006900062E08FE00C9408069F92AF92BF92CF92D7
:1006A000DF92EF92FF920F931F93CF93DF9396EA1F
:1006B000C92E91E0D92ECAEAD1E024E5E22EF60156
:1006C000F1906F0160E08F2D0E94080660E08F2D91
:1006D0000E940C0782EAA82E81E0B82E00E010E00C
:1006E000F50191905F01892D0E948D07811115C040
:1006F000FE01E00FF11FE0808FE19EE40197F1F72A
:1007000000C00000892D0E948D078823D9F3EFE1F6
:10071000FEE43197F1F700C000000F5F1F4F043077
:100720001105F1F662E08F2D0E9408062496F1E093
:10073000CA3BDF0721F68E2DDF91CF911F910F91DC
:10074000FF90EF90DF90CF90BF90AF909F90089573
:10075000CF93C82F60E081E00E940C076C2F661FCA
:100760006627661F86E00E940C07C6FB662760F9B5
:1007700085E00E940C07C5FB662760F984E00E94B3
:100780000C07C4FB662760F983E00E940C0761E058
:1007900082E00E940C078FEC97E00197F1F700C010
:1007A000000060E082E00E940C078FEC97E0019768
:1007B000F1F700C00000C3FB662760F986E00E94E5
:1007C0000C07C2FB662760F985E00E940C07C1FB9D
:1007D000662760F984E00E940C076C2F617083E04B
:1007E0000E940C0761E082E00E940C078FEC97E00A
:1007F0000197F1F700C0000060E082E00E940C0762
:100800008FEC97E00197F1F700C00000CF910895B9
:10081000CF93C82F61E081E00E940C076C2F661F08
:100820006627661F86E00E940C07C6FB662760F9F4
:1008300085E00E940C07C5FB662760F984E00E94F2
:100840000C07C4FB662760F983E00E940C0761E097
:1008500082E00E940C078FEC97E00197F1F700C04F
:10086000000060E082E00E940C078FEC97E00197A7
:10087000F1F700C00000C3FB662760F986E00E9424
:100880000C07C2FB662760F985E00E940C07C1FBDC
:10089000662760F984E00E940C076C2F617083E08A
:1008A0000E940C0761E082E00E940C078FEC97E049
:1008B0000197F1F700C0000060E082E00E940C07A1
:1008C0008FEC97E00197F1F700C00000CF910895F9
:1008D0002FE788E391E0215080409040E1F700C08D
:1008E000000082E00E94A80388E20E94A8038CE036
:1008F0000E94A80381E00E94A8038FEC97E0019773
:10090000F1F700C0000086E00C94A803811102C03A
:1009100080E803C0813021F480EC860F0C94A8039A
:10092000089581E00E94A8038FEC97E00197F1F70A
:1009300000C0000008950C9408040F931F93CF93F8
:100940008C01C0E0F801EC0FF11D8081882321F0BB
:100950000E940804CF5FF6CFCF911F910F910895A9
:100960004F925F926F927F928F929F92AF92BF92BF
:10097000CF92DF92EF92FF921F93CF93DF93CDB789
:10098000DEB764970FB6F894DEBF0FBECDBF6B0124
:100990007C01CE0101965C0184E1F50111928A95FA
:1009A000E9F7C114D104E104F104C1F480E36496D1
:1009B0000FB6F894DEBF0FBECDBFDF91CF911F9170
:1009C000FF90EF90DF90CF90BF90AF909F908F906F
:1009D0007F906F905F904F900C940804F7FE0BC0CF
:1009E0008DE20E940804F094E094D094C094C11C5D
:1009F000D11CE11CF11C10E08AE0482E512C612C26
:100A0000712C4501810E911CC701B601A301920111
:100A10000E94D209605DF401608381E0810F690169
:100A20007A01C114D104E104F10411F0182FE9CFC7
:100A3000F12EF7FC0AC0F501EF0DF11DF7FCFA9558
:100A400080810E940804FA94F4CF64960FB6F8945B
:100A5000DEBF0FBECDBFDF91CF911F91FF90EF9012
:100A6000DF90CF90BF90AF909F908F907F906F90CE
:100A70005F904F9008950F931F93CF93DF93EC01F6
:100A800060E177E20E94880908EE13E0B8010E9455
:100A9000880980E3860F0E940804CE01B8010E94F5
:100AA000880904E610E0B8010E94880980E3860FF7
:100AB0000E940804CE01B8010E9488090AE010E0F3
:100AC000B8010E94880980E3860F0E940804CE01C5
:100AD000B8010E948809805DDF91CF911F910F912D
:100AE0000C9408040895CF93DF93C82FD0E0CC0F67
:100AF000DD1FC656DE4F60E088810E940C0760E073
:100B00008981DF91CF910C940C07CF93DF93C82F8D
:100B1000D0E0CC0FDD1FC656DE4F60E088810E941A
:100B20000C0761E08981DF91CF910C940C0780E084
:100B30000E94F70565E070E00E94880985E0282F93
:100B4000269FC001279F900D1124089587E00E94E1
:100B5000EB05A0E0B0E09C01AD012753310941094C
:100B60005109A8EEB3E00E94000A29E933E040E011
:100B700050E00E94B009C9018A569F4F08950E9413
:100B8000F9060E9468040E943C030E94720566E018
:100B900081E00E94D6050E94EE020E944C090E944C
:100BA00049000E94FD020E94CD00FBCF813041F040
:100BB00028F0823039F43E9A3F9A04C03E9801C032
:100BC0003E9A3F9886B1887F86B986B16770682B58
:100BD00066B9379A089597B1907E97B997B1892BE6
:100BE00087B9369A3699FECF84B195B108950E949F
:100BF000EB059C01A8E8B3E10E94F109DC01CB01FF
:100C00002AE0B695A795979587952A95D1F70895E7
:100C1000982F9695969596958770613009F44DC0FA
:100C200020F0623009F496C008959130B1F028F0B8
:100C3000923019F1933089F108954AB321E030E000
:100C4000B90102C0660F771F8A95E2F7CB01942F96
:100C5000982B9ABB9BB3809547C047B321E030E007
:100C6000B90102C0660F771F8A95E2F7CB01942F76
:100C7000982B97BB98B3809549C044B321E030E0EE
:100C8000B90102C0660F771F8A95E2F7CB01942F56
:100C9000982B94BB95B380954AC041B321E030E0D6
:100CA000B90102C0660F771F8A95E2F7CB01942F36
:100CB000982B91BB92B380954BC09130C1F028F036
:100CC000923031F19330A9F108954AB321E030E038
:100CD000B90102C0660F771F8A95E2F7CB018095B4
:100CE000942F98239ABB9BB389238BBB089547B35A
:100CF00021E030E0B90102C0660F771F8A95E2F764
:100D0000CB018095942F982397BB98B389234BC030
:100D100044B321E030E0B90102C0660F771F8A9525
:100D2000E2F7CB018095942F982394BB95B3892348
:100D30004CC041B321E030E0B90102C0660F771F1B
:100D40008A95E2F7CB018095942F982391BB92B3BB
:100D500089234DC09130B9F028F0923031F19330B1
:100D6000B1F108954AB321E030E0B90102C0660F45
:100D7000771F8A95E2F7CB01962F909594239ABB23
:100D80009BB3892BB2CF47B321E030E0B90102C059
:100D9000660F771F8A95E2F7CB01962F90959423E3
:100DA00097BB98B3892B88BB089544B321E030E00A
:100DB000B90102C0660F771F8A95E2F7CB01962F23
:100DC0009095942394BB95B3892B85BB089541B32B
:100DD00021E030E0B90102C0660F771F8A95E2F783
:100DE000CB01962F9095942391BB92B3892B82BB14
:100DF00008950F931F93CF930AE711E0C0E0F80125
:100E000061918F018C2F0E940806CF5FC032B9F725
:100E1000CF911F910F910895982F9695969596953D
:100E200087706130C1F5913091F028F09230D9F09F
:100E3000933029F108954BB321E030E0B90102C0AD
:100E4000660F771F8A95E2F7CB01842B3AC048B32F
:100E500021E030E0B90102C0660F771F8A95E2F702
:100E6000CB01842B3CC045B321E030E0B90102C086
:100E7000660F771F8A95E2F7CB01842B3EC042B301
:100E800021E030E0B90102C0660F771F8A95E2F7D2
:100E9000CB01842B40C061113FC09130A1F028F0FC
:100EA0009230F9F0933059F108954BB321E030E0DE
:100EB000B90102C0660F771F8A95E2F7CB018095D2
:100EC00084238BBB089548B321E030E0B90102C010
:100ED000660F771F8A95E2F7CB018095842388BB44
:100EE000089545B321E030E0B90102C0660F771FD5
:100EF0008A95E2F7CB018095842385BB089542B3A0
:100F000021E030E0B90102C0660F771F8A95E2F751
:100F1000CB018095842382BB0895282F2770869566
:100F200086958695813049F030F0823041F08330EB
:100F300079F480B305C089B303C086B301C083B31D
:100F400090E002C0959587952A95E2F78170089503
:100F500080E00895E199FECF9FBB8EBB6DBBE29A06
:100F6000E19A0895E199FECF9FBB8EBBE09A8DB3C5
:100F700008951F920F920FB60F9211242F933F9353
:100F80004F935F936F937F938F939F93AF93BF9391
:100F9000EF93FF93E0910302F0910402309709F080
:100FA0000995FF91EF91BF91AF919F918F917F91A3
:100FB0006F915F914F913F912F910F900FBE0F90C6
:100FC0001F9018951F920F920FB60F9211242F9316
:100FD0003F934F935F936F937F938F939F93AF93C1
:100FE000BF93EF93FF93E0910102F09102023097DB
:100FF00009F00995FF91EF91BF91AF919F918F916A
:101000007F916F915F914F913F912F910F900FBE04
:101010000F901F9018951F920F920FB60F921124E8
:101020002F933F934F935F936F937F938F939F93F0
:10103000AF93BF93EF93FF93E091FF01F091000214
:10104000309709F00995FF91EF91BF91AF919F9172
:101050008F917F916F915F914F913F912F910F9061
:101060000FBE0F901F9018951F920F920FB60F9200
:1010700011242F933F934F935F936F937F938F939D
:101080009F93AF93BF93EF93FF93E091FD01F09196
:10109000FE01309709F00995FF91EF91BF91AF9153
:1010A0009F918F917F916F915F914F913F912F9180
:1010B0000F900FBE0F901F9018951F920F920FB6B2
:1010C0000F9211242F933F934F935F936F937F93CE
:1010D0008F939F93AF93BF93EF93FF93E091FB01A7
:1010E000F091FC01309709F00995FF91EF91BF91C4
:1010F000AF919F918F917F916F915F914F913F91B0
:101100002F910F900FBE0F901F9018951F920F9266
:101110000FB60F9211242F933F934F935F936F93CA
:101120007F938F939F93AF93BF93EF93FF93E09140
:10113000F901F091FA01309709F00995FF91EF91CB
:10114000BF91AF919F918F917F916F915F914F91DF
:101150003F912F910F900FBE0F901F9018951F92E7
:101160000F920FB60F9211242F933F934F935F93DB
:101170006F937F938F939F93AF93BF93EF93FF935F
:10118000E091F701F091F801309709F00995FF918E
:10119000EF91BF91AF919F918F917F916F915F91EF
:1011A0004F913F912F910F900FBE0F901F90189568
:1011B0001F920F920FB60F9211242F933F934F93CC
:1011C0005F936F937F938F939F93AF93BF93EF93AF
:1011D000FF93E091F501F091F601309709F0099540
:1011E000FF91EF91BF91AF919F918F917F916F91FF
:1011F0005F914F913F912F910F900FBE0F901F90D5
:101200001895EF92FF920F931F93CF93DF9320E0F7
:10121000FC01E20FF11D3081332311F02F5FF8CF75
:101220002530A9F4EC0185E0E82E82E0F82E00E0FC
:1012300010E06991F70161937F01C8010E94AA073C
:101240000F5F1F4F05301105A1F781E001C080E05D
:10125000DF91CF911F910F91FF90EF900895EF9242
:10126000FF920F931F93CF93DF938C017C01C0E01B
:10127000D0E0CE010E94B207F70181937F01219651
:10128000C530D105B1F7F8011582DF91CF911F91DB
:101290000F91FF90EF900895CF92DF92FF920F93FE
:1012A0001F93CF93DF9385E090E00E94B2078332D3
:1012B00021F18AEBC82E81E0D82E05E012E0C0E0D3
:1012C000D0E0F601F1906F016F2DCE010E94AA07C8
:1012D000F801F1928F012196C530D10591F7109256
:1012E0000A0263E285E090E0DF91CF911F910F91B8
:1012F000FF90DF90CF900C94AA0785E092E0DF91F9
:10130000CF911F910F91FF90DF90CF900C942F09F8
:10131000AA1BBB1B51E107C0AA1FBB1FA617B7071B
:1013200010F0A61BB70B881F991F5A95A9F7809537
:101330009095BC01CD01089597FB072E16F40094FB
:1013400007D077FD09D00E94880907FC05D03EF43C
:10135000909581959F4F0895709561957F4F089561
:10136000A1E21A2EAA1BBB1BFD010DC0AA1FBB1FA9
:10137000EE1FFF1FA217B307E407F50720F0A21B1B
:10138000B30BE40BF50B661F771F881F991F1A9488
:1013900069F760957095809590959B01AC01BD01B2
:1013A000CF010895052E97FB1EF400940E94E909D1
:1013B00057FD07D00E94B00907FC03D04EF40C94EF
:1013C000E90950954095309521953F4F4F4F5F4F1C
:1013D000089590958095709561957F4F8F4F9F4FA1
:1013E0000895A29FB001B39FC001A39F700D811DFE
:1013F0001124911DB29F700D811D1124911D08951E
:101400000E94F109A59F900DB49F900DA49F800D9F
:0A141000911D11240895F894FFCFF8
:10141A005401507265737320273127206F72202779
:10142A0032272000312D4368616E67652020322DF6
:10143A0052756E202000506173735772642E2020FB
:10144A002820736563290054656D7000736D6F6B96
:10145A0065002D2D2D2D00202020202046495245A3
:10146A002121212121202020202000546F20526593
:10147A00737420507265737320312020202020005D
:10148A0046494E45004845415400456E74657220F0
:10149A0050617373576F72643A002A2A2A2A2A20E3
:1014AA00202020202020202020200057726F6E67E5
:1014BA002050617373576F726421212120202020EC
:1014CA0020202000456E746572204F6C64205057AE
:1014DA00203A2020202000456E746572204E6577E0
:1014EA002050573A0057726F6E67205061737357D6
:1014FA006F72642121210050617373776F726420C7
:10150A004368616E67656400446F6E65202121211E
:10151A0021005057204368616E67696E6700466113
:10152A00696C65642021212121000000000000006F
:10153A0000010000000000000000000000000000A0
:10154A000000000002020202010018191A1B1C1DE9
:10155A001E1F1A1B1C1D0C0D0E0F3738392F343560
:10156A00362A3132332D43303D2B00000000000073
:00000001FF
