S0190000466972655F416C61726D5F53797374656D2E7372656355
S11300000C942A000C9447000C9447000C9447006D
S11300100C9412080C94E9070C94C0070C946E0716
S11300200C9497070C9445070C941C070C94F30646
S11300300C9447000C9447000C9447000C94470020
S11300400C9447000C9447000C9447000C94470010
S11300500C94470011241FBECFE5D8E0DEBFCDBF0E
S113006011E0A0E6B0E0E2EFF0E102C005900D92ED
S1130070A832B107D9F721E0A8E2B1E001C01D928E
S1130080AA35B207E1F70E94CE040C9477080C94C9
S113009000009C0180E001C08F5FF901E80FF11DB1
S11300A090819111F9CF0895FF920F931F93CF93ED
S11300B0DF93EC018B010E944900F82EC8010E94D5
S11300C04900F81213C030E007C0F801E80FF91F27
S11300D0808128130DC03F5F832F90E0FE01E80F5D
S11300E0F91F20812111F1CF80E003C081E001C01C
S11300F081E0DF91CF911F910F91FF90089560E00F
S113010080E00E94690388E690E00E9484036BE02B
S113011080E00E9469038DE690E00E9484030895C4
S1130120CF93DF930E942D0280936600909130015B
S1130130992321F0913009F4C3C01EC10E94180212
S1130140EC0180912F01823039F060E081E00E945F
S11301506903CE010E949703C33C81E0D80738F4B9
S113016080916700813019F410922F014CC0C43F74
S1130170D14070F180916700813051F50E94BC0438
S1130180EC016BE081E00E946903CE010E949703B9
S1130190C53FD14038F480916700813019F48093D1
S11301A02F0131C082E080932F011092670060E03C
S11301B080E00E94690383E790E00E94840360E08A
S11301C081E00E94690387E890E00E9484031BC0D9
S11301D080916700811117C080916600843599F081
S11301E0813389F481E0809330010E94770360E0D9
S11301F080E00E9469038CE990E00E94840360E03F
S113020081E00E94690380912F01813049F120F03F
S1130210823009F441C0B0C066E081E00E94690305
S11302208CEA90E00E9484036BE081E00E94690301
S113023088EC90E00E94840360E085E10E94360629
S113024061E081E10E94360660E080E10E943606AA
S113025060E082E10E94360680E00E9439048CC08E
S113026066E081E00E94690381EB90E00E948403D0
S113027060E085E10E94360660E081E10E94360676
S113028060E080E10E94360661E082E10E94360669
S113029080E00E94390470C061E085E10E94360666
S11302A060E081E10E94360661E080E10E9436064A
S11302B060E082E10E94360680E00E944C045CC04B
S11302C0843509F459C0E0912801E53090F4833471
S11302D081F090ED980F9A3060F4F0E0E75DFE4F06
S11302E080830E948103809128018F5F809328017D
S11302F043C0833479F41092280160E081E00E94C5
S1130300690386EB90E00E94840360E081E00E9430
S1130310690332C08D3381F5F0E0E75DFE4F108252
S113032069E271E080E690E00E94540081111CC0F3
S1130330109228010E94770360E080E00E94690324
S113034088E690E00E9484036BE080E00E946903E9
S11303508DE690E00E9484031092300110922F01E8
S113036081E08093670008C060E081E00E94690337
S11303708EEC90E00E948403DF91CF9108950E9457
S11303805F049C01909333018093320190E009C093
S1130390E92FF0E0EE0FFF1FEA5CFE4F318320836C
S11303A09F5F9A30A8F30895CF93DF93C0913101F2
S11303B0D0E00E945F04CC0FDD1FCA5CDE4F99833E
S11303C0888380913101E82FF0E0EE0FFF1FEA5C93
S11303D0FE4F2081318130933301209332018F5FAE
S11303E0809331018A3011F41092310180E020E0D1
S11303F030E00BC0E82FF0E0EE0FFF1FEA5CFE4F89
S113040040815181240F351F8F5F8A3098F3ADEC02
S1130410BCEC0E945D089695879596958795969570
S113042087959093350180933401DF91CF9108959E
S113043080913401909135010895CF93C0E009C0B3
S1130440EC2FF0E0ED5EFE4F62E080810E94290512
S1130450CF5FC430A8F3CF910895BF92CF92DF92BB
S1130460EF92FF920F931F93CF93DF930F2EF4E538
S1130470BF2EF02DD12C3FC0ED2CF12CF701ED5EF9
S1130480FE4FC08060E08C2D0E94290560E08C2D19
S11304900E943606D0E028C00D2F10E0F801E15F7D
S11304A0FE4FC0818C2F0E94BB0681111CC0C70166
S11304B0880F991F880F991F895E9E4FFC01E00FDA
S11304C0F11FB0808FE19EE40197F1F700C00000B6
S11304D08C2F0E94BB068823D9F38FE19EE40197F9
S11304E0F1F700C00000DF5FD430B0F262E08C2D81
S11304F00E942905D39493E09D1508F0BDCF8B2D60
S1130500DF91CF911F910F91FF90EF90DF90CF90EB
S1130510BF900895CF93C82F60E081E00E94360613
S11305206C2F661F6627661F86E00E943606C6FB90
S1130530662760F985E00E943606C5FB662760F9E8
S113054084E00E943606C4FB662760F983E00E94BB
S1130550360661E082E00E9436068FEC97E0019750
S1130560F1F700C0000060E082E00E9436068FECE4
S113057097E00197F1F700C00000C3FB662760F91C
S113058086E00E943606C2FB662760F985E00E9479
S11305903606C1FB662760F984E00E9436066C2F9C
S11305A0617083E00E94360661E082E00E943606B4
S11305B08FEC97E00197F1F700C0000060E082E063
S11305C00E9436068FEC97E00197F1F700C0000017
S11305D0CF910895CF93C82F61E081E00E94360641
S11305E06C2F661F6627661F86E00E943606C6FBD0
S11305F0662760F985E00E943606C5FB662760F928
S113060084E00E943606C4FB662760F983E00E94FA
S1130610360661E082E00E9436068FEC97E001978F
S1130620F1F700C0000060E082E00E9436068FEC23
S113063097E00197F1F700C00000C3FB662760F95B
S113064086E00E943606C2FB662760F985E00E94B8
S11306503606C1FB662760F984E00E9436066C2FDB
S1130660617083E00E94360661E082E00E943606F3
S11306708FEC97E00197F1F700C0000060E082E0A2
S11306800E9436068FEC97E00197F1F700C0000056
S1130690CF9108952FE788E391E021508040904066
S11306A0E1F700C0000082E00E948A0288E20E9412
S11306B08A028CE00E948A0281E00E948A028FEC06
S11306C097E00197F1F700C0000086E00E948A02DB
S11306D00895811105C080E8860F0E948A0208955A
S11306E0813021F480EC860F0E948A02089581E013
S11306F00E948A028FEC97E00197F1F700C0000096
S113070008950E94EA0208950F931F93CF938C01DA
S1130710C0E003C00E948103CF5FF801EC0FF11D1C
S113072080818111F7CFCF911F910F910895CF93BD
S1130730DF93EC019C01329522952F7023273F70A3
S11307402327A7E4B3E00E945D08969587959695C4
S113075087959695879540E157E2849F9001859F00
S1130760300D949F300D1124CE01821B930B9C01FC
S1130770369527953695279536952795A5ECB0E2BD
S11307800E945D08929582958F7089279F708927B2
S1130790805D0E9481039E013695279536952795A5
S11307A036952795A5ECB0E20E945D089295829556
S11307B08F7089279F70892748EE53E0849F9001AA
S11307C0859F300D949F300D1124CE01821B930B15
S11307D09C013695279536952795ABE7B4E10E94A1
S11307E05D0896958795805D0E9481039E013695EC
S11307F0279536952795ABE7B4E10E945D089C01E7
S11308003695279544E6429FC001439F900D1124DD
S11308109E01281B390BADECBCEC0E945D0896953B
S113082087959695879596958795805D0E94810317
S11308309E01ADECBCEC0E945D089695879596955B
S11308408795969587959C01220F331F880F991FD2
S1130850880F991F880F991F820F931F9E01281BD1
S1130860390BC901805D0E948103DF91CF91089506
S11308700895CF93DF93C82FD0E0CC0FDD1FC95F5D
S1130880DE4F60E088810E94360660E089810E9424
S11308903606DF91CF910895CF93DF93C82FD0E030
S11308A0CC0FDD1FC95FDE4F60E088810E943606F1
S11308B061E089810E943606DF91CF91089580E03E
S11308C00E9416059C01ADECBCEC0E945D08969557
S11308D08795969587959C01220F331F220F331F0E
S11308E0820F931F0895EF92FF920F931F93CF935C
S11308F0DF937B01FA01E901D801A21BB30BAC0120
S113090060E070E09A01AB012E193F0941095109D9
S11309100E946C08DC01CB01880F991FAA1FBB1F22
S11309208C019D01000F111F221F331F000F111F87
S1130930221F331FBC01CD01600F711F821F931F43
S11309409F012E193F0940E050E00E943B08CE0170
S1130950880F991FCC0FDD1FCC0FDD1FCC0FDD1FBF
S1130960C80FD91FCE01820F931FDF91CF911F9122
S11309700F91FF90EF9008950F931F9387E00E94CB
S1130980080503E710E02FE030E040ED53E067E3B3
S113099070E00E9473041F910F9108950E9426062F
S11309A00E944A030E941D020E94380466E081E00E
S11309B00E94E3040E94BF010E947F000E94D401B0
S11309C00E949000FBCF813059F018F0823079F00A
S11309D014C087B18F7B87B987B18F7787B90DC072
S11309E087B1806487B987B18F7787B906C087B12B
S11309F0806487B987B1806887B9677086B1887F5A
S1130A0086B986B1682B66B986B1806886B90895BF
S1130A1097B1907E97B997B1892B87B986B18064D5
S1130A2086B93699FECF84B195B108950E94080520
S1130A309C01A8E8B3E10E945D08DC01CB01072E0C
S1130A407AE0B695A795979587957A95D1F7702D05
S1130A500895982F9695969596958770613009F428
S1130A6055C020F0623009F4A1C008959130C1F05E
S1130A7028F0923039F19330B9F108954AB321E066
S1130A8030E0B90102C0660F771F8A95E2F7CB0107
S1130A90942F982B9ABB9BB3809589238BBB089585
S1130AA047B321E030E0B90102C0660F771F8A9591
S1130AB0E2F7CB01942F982B97BB98B380958923A9
S1130AC088BB089544B321E030E0B90102C0660F49
S1130AD0771F8A95E2F7CB01942F982B94BB95B39B
S1130AE08095892385BB089541B321E030E0B901A5
S1130AF002C0660F771F8A95E2F7CB01942F982BDB
S1130B0091BB92B38095892382BB08959130C1F043
S1130B1028F0923039F19330B9F108954AB321E0C5
S1130B2030E0B90102C0660F771F8A95E2F7CB0166
S1130B308095942F98239ABB9BB389238BBB0895EC
S1130B4047B321E030E0B90102C0660F771F8A95F0
S1130B50E2F7CB018095942F982397BB98B3892310
S1130B6088BB089544B321E030E0B90102C0660FA8
S1130B70771F8A95E2F7CB018095942F982394BB35
S1130B8095B3892385BB089541B321E030E0B901D1
S1130B9002C0660F771F8A95E2F7CB018095942FE8
S1130BA0982391BB92B3892382BB08959130C1F0FD
S1130BB028F0923039F19330B9F108954AB321E025
S1130BC030E0B90102C0660F771F8A95E2F7CB01C6
S1130BD0962F909594239ABB9BB3892B8BBB089536
S1130BE047B321E030E0B90102C0660F771F8A9550
S1130BF0E2F7CB01962F9095942397BB98B3892B5A
S1130C0088BB089544B321E030E0B90102C0660F07
S1130C10771F8A95E2F7CB01962F9095942394BB86
S1130C2095B3892B85BB089541B321E030E0B90128
S1130C3002C0660F771F8A95E2F7CB01962F909535
S1130C40942391BB92B3892B82BB0895CF93C0E0C8
S1130C5009C0EC2FF0E0E951FF4F60818C2F0E9416
S1130C602905CF5FC032A8F3CF910895982F9695A8
S1130C709695969587706130E1F5913099F028F05A
S1130C809230E9F0933041F108954BB321E030E024
S1130C90B90102C0660F771F8A95E2F7CB01842B56
S1130CA08BBB089548B321E030E0B90102C0660F60
S1130CB0771F8A95E2F7CB01842B88BB089545B34F
S1130CC021E030E0B90102C0660F771F8A95E2F790
S1130CD0CB01842B85BB089542B321E030E0B901F8
S1130CE002C0660F771F8A95E2F7CB01842B82BB83
S1130CF0089561113FC09130A1F028F09230F9F0CD
S1130D00933059F108954BB321E030E0B90102C0AA
S1130D10660F771F8A95E2F7CB01809584238BBBFE
S1130D20089548B321E030E0B90102C0660F771F8F
S1130D308A95E2F7CB018095842388BB089545B357
S1130D4021E030E0B90102C0660F771F8A95E2F70F
S1130D50CB018095842385BB089542B321E030E024
S1130D60B90102C0660F771F8A95E2F7CB0180951F
S1130D70842382BB0895982F969596959695482F2F
S1130D804770913081F028F09230B9F09330F9F047
S1130D9028C099B3892F90E002C0959587954A950C
S1130DA0E2F78170089526B330E0C90102C0959539
S1130DB087954A95E2F78170089523B330E0C9011D
S1130DC002C0959587954A95E2F78170089520B3FE
S1130DD030E0C90102C0959587954A95E2F7817084
S1130DE0089580E008951F920F920FB60F92112478
S1130DF02F933F934F935F936F937F938F939F931F
S1130E00AF93BF93EF93FF93E0915801F091590191
S1130E10309709F00995FF91EF91BF91AF919F91A0
S1130E208F917F916F915F914F913F912F910F908F
S1130E300FBE0F901F9018951F920F920FB60F922E
S1130E4011242F933F934F935F936F937F938F93CB
S1130E509F93AF93BF93EF93FF93E0915601F0916B
S1130E605701309709F00995FF91EF91BF91AF9128
S1130E709F918F917F916F915F914F913F912F91AE
S1130E800F900FBE0F901F9018951F920F920FB6E0
S1130E900F9211242F933F934F935F936F937F93FC
S1130EA08F939F93AF93BF93EF93FF93E09154017C
S1130EB0F0915501309709F00995FF91EF91BF9199
S1130EC0AF919F918F917F916F915F914F913F91DE
S1130ED02F910F900FBE0F901F9018951F920F9295
S1130EE00FB60F9211242F933F934F935F936F93F9
S1130EF07F938F939F93AF93BF93EF93FF93E0916F
S1130F005201F0915301309709F00995FF91EF9147
S1130F10BF91AF919F918F917F916F915F914F910D
S1130F203F912F910F900FBE0F901F9018951F9215
S1130F300F920FB60F9211242F933F934F935F9309
S1130F406F937F938F939F93AF93BF93EF93FF938D
S1130F50E0915001F0915101309709F00995FF910A
S1130F60EF91BF91AF919F918F917F916F915F911D
S1130F704F913F912F910F900FBE0F901F90189596
S1130F801F920F920FB60F9211242F933F934F93FA
S1130F905F936F937F938F939F93AF93BF93EF93DD
S1130FA0FF93E0914E01F0914F01309709F00995BC
S1130FB0FF91EF91BF91AF919F918F917F916F912D
S1130FC05F914F913F912F910F900FBE0F901F9003
S1130FD018951F920F920FB60F9211242F933F93DF
S1130FE04F935F936F937F938F939F93AF93BF932D
S1130FF0EF93FF93E0914C01F0914D01309709F08C
S11310000995FF91EF91BF91AF919F918F917F913E
S11310106F915F914F913F912F910F900FBE0F9061
S11310201F9018951F920F920FB60F9211242F93B1
S11310303F934F935F936F937F938F939F93AF935C
S1131040BF93EF93FF93E0914A01F0914B013097E6
S113105009F00995FF91EF91BF91AF919F918F9105
S11310607F916F915F914F913F912F910F900FBEA0
S11310700F901F901895A1E21A2EAA1BBB1BFD010D
S11310800DC0AA1FBB1FEE1FFF1FA217B307E40763
S1131090F50720F0A21BB30BE40BF50B661F771FBB
S11310A0881F991F1A9469F760957095809590959B
S11310B09B01AC01BD01CF010895A29FB001B39F74
S11310C0C001A39F700D811D1124911DB29F700D4D
S11310D0811D1124911D08950E945D08A59F900D06
S11310E0B49F900DA49F800D911D11240895F89430
S10510F0FFCF2C
S11310F2313233343500540154656D7000736D6FB1
S11311026B650020202020204649524521212121BF
S113111221202020202000546F2052657374205017
S1131122726573732031202020202000456E74657F
S1131132722050617373576F72643A0046494E4588
S11311420048454154002020202020202020202037
S11311522020202020202020202020202000577220
S11311626F6E672050617373576F7264212121205F
S113117220202020202000000000000000000100A8
S11311820000000000000000000000000000000059
S11311920002020000010018191A1B1C1D1E1F1A4E
S11311A21B1C1D0C0D0E0F3738392F3435362A31DE
S10B11B232332D43303D2B00C4
S9030000FC
